:020000040800F2
:10000000F05000205D020008DB3C00084131000890
:10001000D93C00089D0B0008E952000800000000D0
:100020000000000000000000000000009D0100082A
:10003000E90D000800000000F9010008A5460008CD
:1000400077020008770200087702000877020008AC
:10005000770200087702000877020008770200089C
:10006000770200087702000877020008770200088C
:10007000090D0008770200087702000877020008DF
:10008000150D0008770200087702000877020008C3
:10009000770200087702000877020008770200085C
:1000A00077020008A94700088D470008770200087A
:1000B000770200087702000877020008770200083C
:1000C000770200087702000877020008770200082C
:1000D00077020008315100083D510008895100089D
:1000E000770200087702000877020008770200080C
:1000F000DD470008D14700087702000877020008B2
:1001000077020008770200087702000877020008EB
:100110007702000877020008C54700087702000848
:1001200077020008210D00082D0D00087702000855
:1001300077020008770200087702000877020008BB
:1001400077020008770200087702000877020008AB
:100150007702000877020008390D0008DD51000819
:10016000770200087702000877020008770200088B
:1001700077020008770200087702000800000000FC
:100180007702000877020008DFF80CD000F06CFA64
:100190000048004705550008F05000202C4B196816
:1001A0000868B0E8F04F80F30988BFF36F8F4FF015
:1001B000000080F3118870470000000008480068C4
:1001C000006880F308884FF0000080F3148862B65E
:1001D00061B6BFF34F8FBFF36F8F00DF00BF00BF6B
:1001E00008ED00E0DFF80C00016841F470010160E7
:1001F000704700BF88ED00E0EFF30980BFF36F8F19
:10020000134B1A681EF0100F08BF20ED108A20E96A
:10021000F04F106009B44FF0100080F31188BFF365
:100220004F8FBFF36F8F06F0BBF94FF0000080F3E4
:10023000118809BC19680868B0E8F04F1EF0100F6B
:1002400008BFB0EC108A80F30988BFF36F8F704746
:100250004C010020EFF305807047000006488047FE
:1002600006480047FEE7FEE7FEE7FEE7FEE7FEE79B
:10027000FEE7FEE7FEE7FEE7714700088901000898
:100280002DE9F05F0546002092469B4688460646CB
:10029000814640241BE0284641464746224600F05E
:1002A00076F953465A46C01A914110D31146184662
:1002B000224600F05DF92D1A67EB01084F462246F1
:1002C0000120002100F054F917EB00094E41201ED7
:1002D000A4F10104DFDC484631462A464346BDE826
:1002E000F09F40EA01039B0703D009E008C9121FF1
:1002F00008C0042AFAD203E011F8013B00F8013BE0
:10030000521EF9D27047D2B201E000F8012B491E0B
:10031000FBD270470022F6E710B513460A460446A2
:100320001946FFF7F0FF204610BD2DE9FE4F81EA88
:10033000030404F0004421F0004100944FF0000B4E
:1003400023F0004350EA01045ED052EA03045BD07C
:10035000C3F30A54C1F30A552C44A4F2F3340194B4
:10036000A0FB0254C1F3130141F48011C3F3130342
:1003700043F4801301FB024400FB034E840A970AF6
:1003800044EA815447EA8357A4FB076802958D0A23
:1003900005FB07854FEA932C04FB0C542705029DAF
:1003A0004FEA065847EA1637B5EB08056EEB070C1F
:1003B000870E920E47EA811742EA8312A7FB0201D9
:1003C000B6EB0B0164EB00042B0D43EA0C335E1813
:1003D00044EB1C50DA465146E7FB0201C5F3130417
:1003E0004FEA0B3343EA14534FEA0432019C43EAC9
:1003F0000603A4F10C040294009CCDE900B400F0C3
:10040000E5F803B0BDE8F08F00200146F9E72DE9DB
:10041000F04D81EA030404F0004B21F0004514463E
:100420004FF0000A23F0004150EA050220D054EAC0
:1004300001021DD0C5F30A570246C5F31303C1F3E9
:100440001300C1F30A5640F4801543F48013A7EB60
:100450000608101BD64608F2FD3873EB050002D3E0
:1004600008F1010801E092185B41B8F1000F03DACE
:1004700000200146BDE8F08D00204FF480110646B3
:1004800084460EE0171B73EB050705D3121B63EBC5
:10049000050306434CEA010C49084FEA3000921864
:1004A0005B4150EA0107EDD152EA030012D082EA23
:1004B000040083EA0501084305D0101BAB4106D2B6
:1004C0000122002306E000224FF0004302E06FF01B
:1004D000010253101AEB06004CEB085110EB0A0016
:1004E00041EB0B01BDE8F04D00F061B80EB5C10F56
:1004F00080EAE0700844CA07002140F233438DE8E7
:100500000E000A460B4600F061F803B000BD000083
:1005100030B5041E71F1000404DB4FF0004440428A
:1005200064EB0101141E73F1000405DB1C464FF05F
:100530000043524263EB04038B4208BF824230BD4A
:1005400030B5041E71F1000404DB4FF0004440425A
:1005500064EB0101141E73F1000405DB1C464FF02F
:100560000043524263EB0403994208BF904230BDFE
:10057000202A04DB203A00FA02F100207047914063
:10058000C2F1200320FA03F3194390407047202A58
:1005900004DB203A21FA02F00021704721FA02F32D
:1005A000D040C2F12002914008431946704710B56F
:1005B000141E73F1000408DA401C41F10001921886
:1005C0005B411A4301D120F0010010BD2DE9F04D2F
:1005D00092469B4611B1B1FA81F202E0B0FA80F284
:1005E00020329046FFF7C4FF04460F4640EA0A0057
:1005F00041EA0B0153465A46084313D0114653EAC9
:10060000010019D0C8F140025046FFF7C0FF05466F
:100610000E46504659464246FFF7AAFF084305D00A
:10062000012004E020463946BDE8F08D0020054356
:1006300046EAE0762C4337430A986305E40AA0EBC8
:1006400008000022FD0A44EA47540A3002D500207F
:100650000146E9E7010510196941DDE9084500197E
:100660006941BDE8F04DA2E7064C074D06E0E068A1
:1006700040F0010394E8070098471034AC42F6D3E9
:10068000FFF786FD8C740008AC74000870B58C18F8
:1006900010F8015B15F0070301D110F8013B2A1196
:1006A00006D110F8012B03E010F8016B01F8016B83
:1006B0005B1EF9D12B0705D40023521E0DD401F87F
:1006C000013BFAE710F8013BCB1A921C03E013F848
:1006D000015B01F8015B521EF9D5A142D8D300207D
:1006E00070BD0000784800B5F3EE040AC0ED000AC2
:1006F0009FED760A80ED010A9FED750A0830B7EE8E
:10070000081AA0EC030AA0EC030AA0EC030AF1EE1D
:10071000080A80ED000AC0ED010A80ED020A80EDB2
:10072000030AF1EE040AC0ED1F0A80ED200A80EDF5
:10073000210ADFED680AC0ED100A80ED110A80ED94
:10074000120ADFED650AC0ED130A80ED140A80ED90
:10075000150A9FED621A80ED161A80ED170A80EDDA
:10076000180AC0ED190A80ED1A0A80ED1B0AC0EDC7
:100770001C0A80ED1D0A80ED1E0AF7EE000AC0ED8E
:10078000220ADFED570AC0ED230A80ED240A9FED0F
:10079000553AB0EE431ADFED542AF0EE620ADFED6F
:1007A000533A4949B0EE630A01F1C00003F062FB1D
:1007B0004549B0EE431A0C31F0EE620AB0EE630A1E
:1007C00001F1EC0003F056FB3F49B0EE431A18313B
:1007D000F0EE620AB0EE630A01F58C7003F04AFB9A
:1007E0003949B0EE431A2431F0EE620AB0EE630AE2
:1007F00001F5A27003F03EFB9FED3D3ADFED3D3A7F
:100800003149B0EE431A3031F0EE620AB0EE630ABD
:1008100001F5B87003F02EFB2B49B0EE431AA83156
:10082000F0EE620AB0EE630A01F54A7003F022FBB3
:10083000DFED313A2449B0EE431A6C31F0EE620A32
:10084000B0EE630A01F5137003F014FB1E49B0EE1D
:10085000431A7831F0EE620AB0EE630A01F51E70B9
:1008600003F008FB1849B0EE431A8431F0EE620A37
:10087000B0EE630A01F5297003F0FCFA1249B0EEFC
:10088000431A9031F0EE620AB0EE630A01F534705B
:1008900003F0F0FA0C49B0EE431A9C31F0EE620A14
:1008A000B0EE630A01F53F7003F0E4FA0649B0EEDA
:1008B000431AB431F0EE620AB0EE630A01F55570E6
:1008C0005DF804EB03F0D6BAB0010020CDCCAC3F0C
:1008D0000000000000000C42000020C20000204286
:1008E0000AD7233C00C05A4600401C4600E0AB45F6
:1008F00000803B460000FA4400007A452DED068B4F
:1009000082B09FED478B9FED489B494800F1E00185
:100910009FED48AA00F5FC70CDE90010DFF818A1A2
:10092000464F474D474EDFF82091DFF820814FF0CA
:10093000000B387848B946484FF0FF31C06F04F0DB
:1009400019FF00F095F901203870424C53EC182B38
:1009500094ED001B51EC110BFFF7F2FD02D2A5F84C
:1009600000B020E0B0EE480AF0EE680A53EC102B1D
:1009700094ED000B51EC100BFFF7CAFD1ED894ED5F
:10098000000B53EC192B51EC100BFFF7D9FD15D8C8
:100990003148F2EE060A90ED100A3048B8EE400AEF
:1009A00003F0EAFA28802E483080F0EE4A0A0098D8
:1009B0009AED000A03F0E0FAA9F8000094ED000BAC
:1009C00053EC192B51EC100BFFF7A2FDB1D2A5F897
:1009D00000B05C46B8F800000521019A03F070FAF7
:1009E0003080F0EE4A0A00989AED000A03F0C4FA4B
:1009F000A9F80000B8F80000811F042999D82C80BC
:100A00000821019A03F05CFA3080A9F8004000F058
:100A10002FF90F483C708030006804F083FE88E7AF
:100A20000000000000003EC00000000000C06CC0DC
:100A30007002002000000000480000206800002034
:100A40006A0000206C0000206E000020760000206C
:100A500080000020580000200807002048050020E2
:100A6000E0FCFFFF2DED048B82B04FF00009404801
:100A70009FED3C8B00F54471DFF8F0A09FED3D9AAF
:100A80003D4DDFF8F8B03E4E3E4FDFF8FC8000F5FC
:100A9000FC70CDE90001287848B94FF0FF31DBF850
:100AA0002C0004F067FE00F0E3F801202870374CBA
:100AB00053EC182B94ED000B51EC100BFFF740FD9D
:100AC00018D23348F2EE060A90ED100A3148B8EE1B
:100AD000400A03F051FA30804FF6242038809AED16
:100AE000000A04F09DFCF0EE490A019803F044FA74
:100AF000A8F80000B0EE480AF0EE680A53EC102B9C
:100B000094ED000B51EC100BFFF702FDC3D2224C09
:100B1000A6F8009007212088009A03F0D1F93880C8
:100B20009AED000A04F07CFCF0EE490A019803F00B
:100B300023FAA8F800002088811F0229ABD8A6F864
:100B400000904C460621009A03F0BAF93880A8F8C4
:100B5000004000F08DF82C70DBF8000004F0E2FD9E
:100B600099E700000000000000C06CC048000020B1
:100B700070020020000034436800002000010020C3
:100B80006A0000206C0000206E0000205800002049
:100B9000080700204805002076000020FEE700003E
:100BA0002DE9F0411C482DED068BC76846680568A5
:100BB000F1198468491B081BFFF798FC9FED178B00
:100BC00053EC182BFFF7B1FB9FED169B53EC192B41
:100BD000FFF71DFC9FED15AB53EC1A2BFFF7A5FBA0
:100BE000DFF85080C8E90401A819E1190844FFF7AB
:100BF0007DFC53EC182BFFF798FB53EC192BFFF7F8
:100C000006FC53EC1A2BFFF790FBC8E90601BDEC7C
:100C1000068BBDE8F0810000FC050020000000000C
:100C20000000D03F333333333373E040CDCCCCCCF2
:100C3000CC8C3740400000200C490B4849680268C2
:100C4000B1F900301A440260B1F9023042681A4426
:100C50004260B1F9043082681A448260B1F906102A
:100C6000C2681144C1607047FC05002040000020AC
:100C700008489FED060B084980ED060B80ED040B3C
:100C80000020086048608860C8607047000000006D
:100C90000000000040000020FC050020174910B5AE
:100CA000154A8B78D0545B1CD8B288701478002316
:100CB000552C01D08B7010BD0B28FCD350785328D5
:100CC00006D10D481C3850F81E2F0A624068486251
:100CD0000A48DFED0B0A2030B0F9040000EE100ADC
:100CE000B8EEC00A20EE200ADFED060A20EE200A48
:100CF00081ED020ADEE700000C0600204000002023
:100D00000000003800003443014800F057BA0000EA
:100D1000FC0E0020014800F051BA00009C0E00209B
:100D2000014800F04BBA00005C0F0020014800F0C1
:100D300045BA0000DC0D0020014800F03FBA000079
:100D40003C0E002001681823CAB2103AB2FBF3F23D
:100D5000054B6FF30901032A9B5CC36500D9091D8C
:100D600081650846704700005473000810B50146BD
:100D700000208B698A6A4FF0C07453B1B3F5005FED
:100D800015D072B1012A0CD0022A0AD0032A09D147
:100D900004E01AB1012A06D0022A03D1C96AC901A6
:100DA00000D5012010BDC96AA142FAD010BD002AA9
:100DB000F7D0012AF2D0022AF3D0032AF3D010BDD3
:100DC00030B50468256825F48025256004686360D3
:100DD0008368402B036803D099600068C26030BD0F
:100DE0009A600068C16030BD7047000000EE100AD4
:100DF0009FED031AF8EE400A80EE810A704700006A
:100E000000006842704700002DED088B82B09FED16
:100E10004CBB9FED4D9B4E4800F1E0019FED4DAA6C
:100E200000F52870CDE90010DFF82CA14B4FDFF85A
:100E300030914C4C4C4DDFF834B14FF0000838780D
:100E400048B94B484FF0FF31806F04F093FCFFF737
:100E50000FFF01203870474EB0EE4B8AF0EE6B8AE0
:100E600096ED000B53EC182B51EC100BFFF750FBD9
:100E70000CD2A9F800804FF448702080F0EE4A0AA6
:100E800000989AED000A03F077F8288096ED000BA1
:100E900053EC182B51EC100BFFF752FB1ED896EDBC
:100EA000001B53EC192B51EC110BFFF731FB15D83C
:100EB0009BED100A3048F2EE060AB8EE400A03F045
:100EC0005BF8A9F800004FF448702080F0EE4A0A61
:100ED00000989AED000A03F04FF8288096ED000B79
:100EE00053EC192B51EC100BFFF72AFBA7D2A9F8F2
:100EF00000805E46DBF820000921019A02F0E0FF45
:100F00002080F0EE4A0A00989AED000A03F034F8C7
:100F10002880306AA0F10801012990D8A9F8008042
:100F200046460921019A02F0CBFF20802E80FFF770
:100F30009FFE0F483E708030006804F0F3FB7EE7B0
:100F40000000000000003E400000000000C06C40B7
:100F5000700200200000000048000020680000200F
:100F60006A0000206C0000206E00002008070020AE
:100F70008000002058000020480500202DED048B43
:100F80004FF4487ADFF880B09FED208ADFF8808048
:100F9000DFF880909FED209B214F224D224C287836
:100FA00048B922484FF0FF31406E04F0E3FBFFF7F1
:100FB0005FFE01202870B4F90000504501DC401D9F
:100FC00020805846F0EE480A98ED000A02F0D4FF5F
:100FD000A9F800000A2004F067FB97ED001B53EC12
:100FE000192B51EC110BFFF7ABFAD8D8104800269B
:100FF00026800680FFF73CFE0C482E70803000688B
:1010000004F090FBCBE7000050030020000000003C
:10101000480000206E0000200000000000804940D1
:1010200050000020680000206A000020800000209E
:101030006C0000202DED028B9FED248BDFF8949047
:10104000254C264E264FDFF89C80207848B926484C
:101050004FF0FF31406F04F08DFBFFF709FE0120D8
:10106000207099ED000B53EC182B4D4651EC100BF2
:10107000FFF74EFA16D840F2DC5030801B481C4A6D
:101080000721008802F01CFF38801A4890ED000A02
:1010900004F0C6F91848DFED190A02F06DFFA8F850
:1010A0000000D2E79FED160B53EC102B95ED000BD3
:1010B00051EC100BFFF744FAC7D2002535803D8074
:1010C000A8F80050FFF7D4FD2570BEE7000000002F
:1010D00000F0794050000020680000206A000020E5
:1010E0006C0000206E0000208000002076000020B0
:1010F00068040020480000208005002000003443E0
:101100000000000000D07B402DE9F0410446876DCF
:1011100000F0BAFA064694F835000025022806D0F9
:101120008020606584F834500120BDE8F08120689B
:10113000016821F0160101602068416921F08001F9
:101140004161206C08B9A06C20B12068016821F0D1
:10115000080101602068016821F0010101600BE0D5
:1011600000F092FA801B052806D92020606504F85B
:10117000345F03206070D8E720680068C007EFD1B3
:1011800094F85C103F208840B86004F8345F012078
:1011900060700020C9E790F83510022903D0802143
:1011A000416501207047052180F83510006801680D
:1011B00021F0010101600020704700002DE9F84393
:1011C00004464FF00009CDF8009063484FF41651E3
:1011D000A56D0068B0FBF1F72E6894F85C1008204C
:1011E00000FA01F131420FD021680A6852070BD58D
:1011F0000A6822F004020A6094F85C108840A86033
:10120000606D40F00100606594F85C104FF00108DB
:1012100008FA01F0304208D021684969090604D56E
:10122000A860606D40F00200606594F85C100420D6
:101230008840304208D021680968890704D5A86031
:10124000606D40F00400606594F85C1010208840E8
:10125000304218D021680968090714D5A8602068B1
:101260000168490304D50068000308D5A16C07E0B4
:101270000168C90503D4016821F008010160216CEF
:1012800009B12046884794F85C10202088403042FD
:1012900031D021680968C9062DD5A86094F83500B9
:1012A00005282068016806D0490347D50068000377
:1012B0001DD4616C1CE021F01601016020684169B9
:1012C00021F080014161206C08B9A06C20B1206838
:1012D000016821F00801016094F85C103F2088400B
:1012E000A86084F8349084F83580216D1FE0E16BAC
:1012F00009B120468847606D00282BD0606DC0077B
:1013000014D0052084F835002068016821F001011F
:1013100001600098401C0090B84203D82068006823
:10132000C007F6D184F8349084F83580E16C002948
:1013300010D001B02046BDE8F04308470168C90558
:10134000D5D4016821F01001016084F8349084F84C
:101350003580CCE7BDE8F883480100202DE9F04155
:10136000044600F091F906465CB1002584F834503B
:10137000022084F835002068016821F00101016035
:101380000DE00120BDE8F08100F07EF9801B05280A
:1013900005D920206065032084F83500F2E7206835
:1013A0000068C007F0D12268116820480140D4E9E4
:1013B00001031843D4E903363343184363691843E0
:1013C000A3691843E3691843236A18430843616A11
:1013D000042903D1D4E90B13194308431060206892
:1013E0004069666A20F0070130460E430127042851
:1013F0000CD1A06A0643E06A40B12046FFF7B6FC74
:1014000020B14020606584F83570BAE720684661F5
:101410002046FFF797FC94F85C203F2191408160C3
:10142000656584F835700020ACE700003F8010F05F
:101430002DE9F0410446866D90F83400002501281E
:101440000DD0012084F8340094F835700020012F6D
:1014500007D084F8340002252846BDE8F081022038
:10146000FBE7022784F8357060652046FFF7A8FC8B
:1014700094F85C103F208840B0602068016841F01B
:1014800016010160206C20B12068016841F008015C
:1014900001602068016841F001010160DCE70000A3
:1014A00070B5044600F0F0F80546601C02D0044810
:1014B0000078044400F0E8F8401BA042FAD370BD65
:1014C0003C0100202DE9F84F00224FF001080325D0
:1014D0004FF00F0E0B6808FA02F42340A3426ED1BE
:1014E0004E68012E05D0022E03D0112E01D0122EEF
:1014F00012D186684FEA420C05FA0CF7BE43CF685A
:1015000007FA0CF7374387604668A6430C79C4F3A3
:101510000014944034434460C668570005FA07FC41
:101520008C6826EA0C06BC403443C4604C68022C2C
:1015300001D0122C13D1D40800EB8404A346D4F8B4
:10154000209054074FEAD46A0EFA0AF629EA0609EF
:101550000E6906FA0AF646EA0906CBF82060066824
:101560000C7926EA0C0604F00304BC403443046002
:101570004C68E40065D5364C266846F48046266003
:10158000246822F0030604F480440094314C34446F
:10159000A446D4F808489607370F0EFA07F6B44366
:1015A0002D4EB04201D1002624E02C4EB04201D194
:1015B00001261FE02A4EB04202D102261AE040E086
:1015C000284EB04201D1032614E0274EB04201D18B
:1015D00004260FE0254EB04201D105260AE0244E34
:1015E000B04201D1062605E0224EB04201D10726C5
:1015F00000E00826BE402643CCF808681E4E34683A
:101600004F689C43FF0300D51C4334601A4C241DD3
:1016100026684F689E43BF0300D51E432660164EC2
:10162000083634684F689C43FF0200D51C43346081
:10163000114E0C3634684F689C43BF0200D51C43E2
:101640003460521C102AFFF445AFBDE8F88F00004B
:1016500044380240003001400000024000040240D3
:1016600000080240000C024000100240001402403A
:1016700000180240001C0240003C01400AB1816198
:1016800070470904FBE700000148806870470000CC
:101690003C01002002488168027811448160704753
:1016A0003C0100200B4810B5016841F40071016055
:1016B000016841F480610160016841F4807101605A
:1016C000032000F089F8002000F006F800F03EF852
:1016D000002010BD003C024010B5014688B0002239
:1016E000362000F059F8362000F048F8134800245E
:1016F000016841F010010160006805A900F01000C8
:101700000690684600F0B2F900F0D0F90C494000AC
:10171000B0FBF1F10C480B4A491E026040F2E7327F
:10172000C0E90324C0E9011400F032FC10B101202B
:1017300008B010BD044800F0F5FCF9E7403802405D
:1017400040420F0000100040BC0F00200A4808B5BE
:10175000016841F480410160006800F4804000901D
:101760000548001F016841F080510160006800F0E9
:101770008050009008BD000044380240002809DB7A
:1017800000F01F02012191404009800000F1E0209B
:10179000C0F8001170470000F0B40E4B1B680C46F7
:1017A000C3F30223C3F10705042D00D90425191D35
:1017B000072901D2002300E0DB1E012606FA05F10D
:1017C000491E214099409E40761E16403143F0BC90
:1017D00003F09CBD0CED00E0064900F0070208682C
:1017E0004FF6FF03184040EA0220034A1043086006
:1017F000704700000CED00E00000FA052DE9F84309
:10180000054600684FF00109C1074FF0000601D1FD
:10181000400727D5DFF80C81C8F86860FFF734FF70
:101820000746414C05E000BFFFF72EFFC01B022812
:1018300057D820680001F7D468688101287A41EA06
:101840000070394984310860C8F86890FFF71CFFC0
:10185000074604E0FFF718FFC01B022841D82068A4
:101860000001F7D52878800752D52F48403001680D
:1018700041F08051016000682C4C00F080500090D5
:10188000206840F480702060FFF7FEFE074604E009
:10189000FFF7FAFEC01B022823D82068C005F7D541
:1018A000214C7034206810F4407020D0A98901F4D4
:1018B000407181421BD020681D4920F44070C1F85E
:1018C00000900E6020602068C00710D0FFF7DCFE9B
:1018D000064641F2883707E0FFF7D6FE801BB84284
:1018E00002D90320BDE8F88320688007F4D5E968B1
:1018F0000D48C1F301220830032A0BD0016821F4FE
:10190000F81101602068A989C1F30B010843206028
:101910000020E7E70268074B22F4F81219400A4357
:101920000260EFE7000047420038024000700040CC
:10193000400E4742FFFCFF0F2DE9F0470E46050021
:1019400065D0DFF81481D8F80000F7B200F00F007E
:10195000B04207D288F80070D8F8000000F00F00FD
:10196000B04254D128683D4C810712D5400703D5B9
:10197000206840F4E05020602878000703D52068F4
:1019800040F4604020602068A96820F0F00008431F
:1019900020602878C0072DD03049686808390128B0
:1019A00012D0022813D0032811D009688907002912
:1019B0002DDA216821F0030101432160FFF764FE65
:1019C000814641F2883A0EE009688903EFE7096829
:1019D0008901ECE7FFF758FEA0EB0901514502D958
:1019E0000320BDE8F0872068696800F00C00B0EBC8
:1019F000810FEFD1D8F80010404601F00F01B1423D
:101A000007D90770006800F00F00B04201D0012034
:101A1000E7E72878400705D52068E96820F4E0501A
:101A2000084320602878000706D52068296920F43B
:101A3000604040EAC100206000F058F82168084A80
:101A4000C1F30311515CC8400649086006480068AC
:101A5000FFF742FE0020C4E7003C02400838024085
:101A60005C73000848010020400100200F22026042
:101A70000C4A136803F003034360136803F0F00398
:101A80008360136803F4E053C36012684FF4E053BB
:101A900003EAD20202610448006800F00F00086007
:101AA0007047000008380240003C024004480549E5
:101AB00000680968044AC1F38221515CC84070473C
:101AC00048010020083802406C73000804480549AA
:101AD00000680968044AC1F34231515CC84070474C
:101AE00048010020083802406C730008154810B502
:101AF000006810F00C02144813D04110042A0FD0D3
:101B0000082A0ED10F4C241F2268236802F03F02DE
:101B10005B0207D52068C0F38810A0FB010106E036
:101B2000084610BD2168C1F38811A1FB0001002304
:101B3000FEF7A6FB2168C1F30141491C4900B0FB37
:101B4000F1F010BD083802400024F4002DE9F84FF0
:101B500004006ED02078DFF83C93C007A9F104059B
:101B60004AD009F104000168C1F38101012908D0BC
:101B70000068C0F3810002280AD1D9F800004002B1
:101B800006D52868800337D560680028E1D033E0A7
:101B90006068B0F5803F10D0B0F5A02F286810D055
:101BA00020F480302860286820F480202860606855
:101BB000A8B1FFF769FD06460DE0286840F48030C3
:101BC000F4E740F480202860F7E700BFFFF75CFDF2
:101BD000801B642873D828688003F7D50CE0FFF7D2
:101BE00053FD064605E000BFFFF74EFD801B64284D
:101BF000F0D828688003F7D42078DFF89C8280072B
:101C00004FF0000A3ED5A348001D016811F00C0FEB
:101C100008D00068C0F3810002280BD1D9F8000079
:101C2000400207D42868800716D5E068012800D153
:101C300012E02BE1E068B8B10120C8F80000FFF71E
:101C400023FD064605E000BFFFF71EFD801B0228AE
:101C5000C0D828688007F7D52868216920F0F800E7
:101C600040EAC10028600DE0C8F800A0FFF70CFDB5
:101C7000064604E0FFF708FD801B02281FD82868ED
:101C80008007F7D42078000722D5824E8348616907
:101C9000703671B101210160FFF7F6FC074604E0E0
:101CA000FFF7F2FCC01B022809D830688007F7D57F
:101CB0000EE0C0F800A0FFF7E7FC074605E082E071
:101CC000FFF7E2FCC01B02287DD830688007F7D4FC
:101CD0002078400768D5DFF8BCB100270BF13C0B3A
:101CE000DBF80000C0000BD4DBF8001041F080519D
:101CF000CBF80010DBF80000012700F080500090C6
:101D0000674E3068C00510D4306840F48070306091
:101D1000FFF7BAFC009005E0FFF7B6FC0099401A07
:101D2000022850D83068C005F6D55A4EA0686C36E7
:101D300001280FD00528306810D020F00100306055
:101D4000306820F004003060A068B8B1FFF79CFC58
:101D500000900FE0306840F00100F4E740F004002C
:101D60003060F7E7FFF790FC0099411A41F28830A4
:101D7000814266D830688007F4D50EE0FFF784FC16
:101D8000009007E0FFF780FC0099411A41F288308B
:101D9000814256D830688007F4D42FB1DBF80010A8
:101DA00021F08051CBF80010A069C8B33949091D52
:101DB0000968C1F3810102294AD00228504607D0A0
:101DC000C8F8600000E03CE0FFF75EFC04463BE042
:101DD0004746C8F86000FFF757FC064605E000BF1D
:101DE000FFF752FC801B02282BD828688001F7D40B
:101DF000D4E907010843A16A2A4A490802EB0141D4
:101E0000626A41EA8211084394F82C1040EA0161A9
:101E1000C9F8001001203866FFF736FC044606E0DA
:101E200036E000BFFFF730FC001B022809D8286805
:101E30008001F7D52CE000BFFFF726FC001B02282D
:101E400002D90320BDE8F88F28688001F4D41FE090
:101E50000128F7D0D9F80000E26900F4800191422E
:101E600014D1226A00F03F0191420FD147F6C071B0
:101E7000626A0140914209D1A26A00F44031914264
:101E800004D1E16A00F07060884201D00120D9E7F6
:101E90000020D7E70438024000004742800E474246
:101EA000007000400000FFFF7047704710B590F8C9
:101EB0003C20012A22D0012280F83C20CA688C688C
:101EC00022F4407222434C6822F4806222430C6860
:101ED00022F4006222430C6922F4805222434C69AE
:101EE00022F400522243C969002322F480420A43AB
:101EF00001684A6480F83C30002010BD022010BD0B
:101F000070B590F83C20012A32D0012480F83C4082
:101F1000022280F83D2003685A689D6822F070060E
:101F20000A6832435A60134B02689A4214D0B2F1E5
:101F3000804F11D0104B9A420ED0104B9A420BD0CA
:101F40000F4B9A4208D00F4B9A4205D00E4B9A4243
:101F500002D00E4B9A4204D1496825F08003194300
:101F6000916080F83D40002180F83C10084670BD2B
:101F7000022070BD00000140000400400008004045
:101F8000000C0040000401400040014000180040E7
:101F900010B5040003D094F83D0010B107E0012013
:101FA00010BD002084F83C00204600F00DF802200F
:101FB00084F83D00211D206802F016FC012084F801
:101FC0003D00002010BD0000F0B587B0044614218C
:101FD0006846FEF79FF94E494C4F256800224C4B4E
:101FE0001439022403264B48BD421FD11D6845F415
:101FF00000351D601B6803F4003305930B6843F044
:1020000020030B60096801F0200105914021009137
:10201000CDE90142CDE903266946FFF753FA0022D4
:1020200004211920FFF7B8FB192021E03A4FBD42E7
:1020300022D11D6845F480251D601B6803F48023B0
:1020400005930B6843F020030B60096801F0200141
:10205000059180210091CDE90142CDE90326694631
:10206000FFF730FA002204211A20FFF795FB1A200F
:10207000FFF784FB07B0F0BD254B284F1B1F092637
:10208000BD421FD11D6845F080051D601B6803F02F
:10209000800305930B6843F020030B60096801F08F
:1020A00020010591B9150091CDE90142CDE9032642
:1020B0006946FFF707FA002204212C20FFF76CFB8A
:1020C0002C20D5E7164FBD42D4D11D6845F480754C
:1020D0001D601B6803F4807305930B6843F02003B5
:1020E0000B60096801F02001059179150091CDE997
:1020F0000142CDE903266946FFF7E4F900220421F5
:102100002D20FFF749FB2D20B2E7000000440140DD
:10211000443802400014024000480140001C0040C6
:10212000002000400168CA6842F00102CA600068ED
:10213000816801F00701062903D0016841F001011F
:102140000160002070472DE9F0410D46040003D0E6
:1021500094F83D0018B108E00120BDE8F0810020AE
:1021600084F83C00204600F03BF8022084F83D0053
:102170002068816844F2070291438160211D206834
:1021800002F032FB226890689169166A2B68AF6989
:10219000034340F20330814341EA0721A868EF6915
:1021A00008434FF6FC418843E96840EA07200143B1
:1021B00028692F6A000140EA0730084369686D69A1
:1021C00026F0AA0646EA0515294393602268906125
:1021D00020680162012084F83D000020BDE7000076
:1021E00070B586B0044614216846FEF793F841495D
:1021F000236800243F4A103902253F48B3F1804F3D
:1022000014D03E4EB3423FD1136843F00203136033
:10221000126802F0020205920A6842F001020A60A6
:10222000096801F001010591C0215CE0136843F0E9
:1022300001031360126802F0010205920A6842F07D
:1022400001020A600A6802F0010205920A6842F07F
:1022500002020A600968012601F0020105912021AD
:102260000091CDE90154CDE903466946FFF72AF90B
:1022700008200090CDE90154CDE903466946204885
:10228000FFF720F906B070BD1E4EB34217D110689B
:1022900040F004001060106800F004000590086829
:1022A00040F0080008600868694600F008000590E2
:1022B0004FF440500090CDE90154134817E0134EFD
:1022C000B342DFD1136843F008031360126802F0D1
:1022D000080205920A6842F001020A60096801F0EA
:1022E0000101059103210091CDE901546946CDE931
:1022F0000345C5E7403802400000024000040040AA
:102300000004024000080040000C0240000C0040A5
:1023100010B50446006891B1042904D001220021BF
:1023200002F0C6FA206801225FF0040102F0C0FA50
:102330002068016841F001010160002010BD012208
:102340000021F3E730B50446006821499FB0884278
:1023500006D1207F012803D11E48006803F0E2F96E
:102360001D492068884206D1207F012803D11B48DF
:10237000006803F0D7F91A4D2068A84217D1207FD2
:10238000012814D13D2217490EA8FDF7AAFF1548D0
:1023900090F83D008DF87500382210A96846FDF7C9
:1023A000A0FFDDE90E2329460F4800F06FFE0F491C
:1023B0002068884209D1207F012806D10C48006896
:1023C0001FB0BDE8304003F0ADB91FB030BD000014
:1023D0000044014008010020004801400C01002099
:1023E000001C00405C0C002048070020002000403A
:1023F000140100202DE9F041044690F83C000D4600
:1024000001283DD0012684F83C60022084F83D007C
:10241000AAB3042A46D02068082A55D0D5E9002757
:10242000E968036A23F480530362D0F81CC0036A8E
:102430002CF4407C4CEA07274FF6FF7C27F47047CA
:102440000CEA013139434FF4204723F4204307EAD3
:1024500002321A43C16102622068C16921F44061FD
:10246000C1612068C169AA6841EA0221C0F81C1054
:1024700084F83D60002084F83C00BDE8F08101E074
:102480000220FAE7D5E90012EB68206802F0E0FAD2
:102490002068816921F00C01816120688169AA6846
:1024A00011430FE0D5E90012EB68206802F010FB41
:1024B0002068816921F44061816120688169AA688E
:1024C00041EA02218161D3E7D5E9002C2F7B016A23
:1024D00021F480710162C169036A21F0030141EABC
:1024E0000C0121F0F00C39074FF420674CEA116120
:1024F00023F4206307EA02221A43C16102622068C2
:10250000C16921F00C01C1612068C169AA68114349
:10251000ACE710B5040003D094F83D0010B107E01B
:10252000012010BD002084F83C00204600F00CF88B
:10253000022084F83D00211D206802F055F9012099
:1025400084F83D00002010BD704710B502680446B5
:1025500031B1042908D008291AD00C2908D11BE070
:10256000D06840F0020002E0D06840F00400D06083
:102570000122206802F09CF92068816801F00701BF
:10258000062903D0016841F001010160002010BD5F
:10259000D06840F00800EAE7D06840F01000E6E7B5
:1025A00070B50446006801694FF00005C94389070A
:1025B00015D4C168C943890711D4E91E01610120FE
:1025C0002077206880698007204602D0FFF7BAFE96
:1025D00004E000F0DDF8204600F092F9257720684D
:1025E0000169C943490717D4C168C943490713D4CE
:1025F0006FF004010161022020772068806910F4E7
:10260000407F204602D0FFF79DFE04E000F0C0F8B6
:10261000204600F075F9257720680169C94309074C
:1026200016D4C168C943090712D46FF008010161CB
:10263000042020772068C0698007204602D0FFF779
:1026400081FE04E000F0A4F8204600F059F9257757
:1026500020680169C943C90617D4C168C943C906BE
:1026600013D46FF010010161082020772068C06941
:1026700010F4407F204602D0FFF764FE04E000F033
:1026800087F8204600F03CF9257720680169C943A6
:10269000C90708D1C168C943C90704D1891E0161AE
:1026A000204600F051F920680169C943090609D4A0
:1026B000C168C943090605D46FF080010161204655
:1026C000FFF7F2FB20680169C943490609D4C168D4
:1026D000C943490605D46FF040010161204600F06E
:1026E00052F920680169C94389060BD4C168C943FE
:1026F000890607D46FF0200101612046BDE87040D3
:10270000FFF7D3BB70BD000010B586B0044614219E
:102710006846FDF7FFFD2368184C00211848022287
:10272000A34212D1036843F010030360006800F075
:10273000100005904FF4D4400090CDE90121012014
:10274000CDE9031069460F4813E00F4CA34212D1A4
:10275000036843F002030360006800F00200059084
:10276000E0000090CDE901210920CDE90310694680
:102770000648FEF7A7FE06B010BD000000000140AD
:1027800030380240001002400018004000040240AF
:10279000704770B5044690F83C000D4601280DD0F6
:1027A000012684F83C60022084F83D0042B1042AEE
:1027B00018D0082A2AD00C2A4DD139E0022070BD49
:1027C000206802F083F82068816941F00801816186
:1027D0002068816921F004018161206881692A698A
:1027E000114311E0206802F0A1F82068816941F4EA
:1027F000006181612068816921F4806181612068C4
:1028000081692A6941EA0221816124E0206802F09D
:10281000C3F82068C16941F00801C1612068C1693D
:1028200021F00401C1612068C1692A69114311E0E6
:10283000206802F0E5F82068C16941F40061C161D7
:102840002068C16921F48061C1612068C1692A6979
:1028500041EA0221C16184F83D60002084F83C0017
:1028600070BD10B5040003D094F83D0010B107E02E
:10287000012010BD002084F83C00204600F00CF838
:10288000022084F83D00211D206801F0ADFF0120E9
:1028900084F83D00002010BD08B500681549884245
:1028A0001AD11548016841F0010101600068002259
:1028B00000F00100009004211920FEF76DFF19209F
:1028C000FEF75CFF002204211A20FEF765FFBDE839
:1028D00008401A20FEF752BF0849884209D106482D
:1028E000001F016841F040010160006800F04000F5
:1028F000009008BD0000014044380240001800402C
:102900007047000010B504460068012201F0D0FFB6
:102910000B492068884202D00A49884203D1416CA1
:1029200041F4004141642068816801F007010629F3
:1029300003D0016841F001010160002010BD0000DA
:10294000000001400004014000680349884201D1B1
:10295000FEF7A0BE704700000010004002460020B5
:1029600041B1042909D008290AD00C2901D11068E5
:10297000006C70471068406B70471068806B704740
:102980001068C06B7047704710B504460068416915
:1029900094F83920C1F3C011212A0BD151B14169FA
:1029A00021F080014161206B08B1FEF7ADFB2046AC
:1029B00002F072FA2068416994F83A20C1F380115C
:1029C000222A0BD151B1416921F040014161606B74
:1029D00008B1FEF799FB204602F050FA002010BD26
:1029E0007047000070B5026804461068D1685369EA
:1029F00010F00F0F52D003F0010501F490762E4332
:102A00005FD0C20705D0CA0503D5E26B42F00102D0
:102A1000E263420705D5DA0703D0E26B42F0020217
:102A2000E263820705D5DA0703D0E26B42F00402C5
:102A3000E263020707D501F020022A4303D0E26BCC
:102A400042F00802E263E26B002A33D0800604D52C
:102A5000880602D5204602F028FA20684069E16B1A
:102A6000C0F38010090700D428B3204602F006FA0C
:102A70002068416949061AD5416921F04001416148
:102A8000606BA0B11B490165606BFEF784FB0028F9
:102A900010D0606B016DBDE870400847830610D50B
:102AA0008B060ED52046BDE8704002F0FEB92046E8
:102AB000FFF796FF70BD2046FFF792FF0020E0630E
:102AC00070BD030606D50B0604D52046BDE8704050
:102AD00002F0CABA4006F3D54806F1D5D1682046BF
:102AE00021F04001D160202184F8391000F07AFAF9
:102AF00070BD0000DD4D000870B5040004D094F8EE
:102B00003900002510B106E0012070BD84F838506E
:102B1000204600F023F8242084F839002068C1689A
:102B200021F40051C160204602F00AFA20680169D0
:102B300021F4904101612068416921F02A0141613D
:102B40002068C16841F40051C160E563202084F829
:102B5000390084F83A00002070BD00002DE9F04FE4
:102B600087B0054614216846FDF7D4FBA148A04B69
:102B70001438D5F800C0DFF87CB202210322DFF858
:102B800078E20024061587154FF0070A4FF0006918
:102B90009C4559D1DBF800C04CF0100CCBF800C0BC
:102BA000DBF8003003F010030593036843F00103E2
:102BB0000360006800F00100059050028DE81300EA
:102BC000CDE9032A69467046FEF77CFCDFF83082C7
:102BD0008A494046C8F80010C0E90194C0E903469C
:102BE000C8F81440C0E90647C8F82040C8F8244097
:102BF000FEF7B4FB08B1FEF705F9C5F83480C8F854
:102C00003850DFF8FC817D4908F160084046783192
:102C1000E0E80219402152C040F81449C0E90647D3
:102C200004624046C8F82440FEF798FB08B1FEF75E
:102C3000E9F8C5F83080002203212520C8F8385073
:102C4000FEF7AAFD252043E06A4BDFF8B8811B1F81
:102C5000C44542D1D3F800C04CF4003CC3F800C0D6
:102C60001B6803F400330593036843F0010303601A
:102C7000006800F0010005900C208DE81300CDE9FC
:102C8000032A69467046FEF71DFCDFF874815E4931
:102C900008F1C0084046C8F80010C0E90194C0E936
:102CA0000346C8F81440C0E90647C8F82040C8F8F1
:102CB0002440FEF753FB08B1FEF7A4F8C5F83480B2
:102CC000002203212620C8F83850FEF765FD262093
:102CD000FEF754FD07B0BDE8F08FDFF83081C44542
:102CE0003ED1D3F800C04CF4802CC3F800C01B6860
:102CF00003F480230593036843F002030360006834
:102D000000F0020005904FF440608DE81300CDE91B
:102D1000032A69463E48FEF7D5FB3B49DFF8F480BD
:102D200060394046C8F80010C0E90194C0E9034684
:102D3000C8F81440C0E90647C8F82040C8F8244045
:102D4000FEF70CFB08B1FEF75DF8C5F834800022F1
:102D500003212720C8F83850FEF71EFD2720B7E7CB
:102D60002D4B9C45B6D1DBF800C04CF0200CCBF8C5
:102D700000C0DBF8003003F020030593036843F044
:102D800040030360006800F0400005904FF4844069
:102D90008DE813000820CDE9032069461F48FEF79F
:102DA00091FBDFF87080154908F16008183940463A
:102DB000C8F800108905C0E90114C0E90346C8F845
:102DC0001440C0E90647C8F82040C8F82440FEF780
:102DD000C5FA08B1FEF716F8C5F8348000220321C1
:102DE0004720C8F83850FEF7D7FC472070E70000AE
:102DF000001001404438024000000240406402409C
:102E0000DC0D002000440040886002400048004083
:102E100000040240FC0E0020001401400018024093
:102E2000F8B5044690F83A0020283CD1C1B3BAB3B3
:102E300094F83800012836D0012084F83800A162C7
:102E4000A2850025E563222084F83A00636B1748C9
:102E5000D863636B16481864636B1648D864606B5C
:102E6000134605650846666B216802463046091D13
:102E7000FEF7DEFA206801684168009184F8385056
:102E8000C16841F48071C1602068416941F001016D
:102E900041612068416941F0400141610020F8BD75
:102EA000FFE70120FBE70220F9E70000374E0008AA
:102EB000734E0008ED4D000890F83A30202B22D1D7
:102EC000F9B1F2B190F83830012B1CD081628285C3
:102ED000C2850021C163222280F83A2080F8381090
:102EE0000168CA6842F48072CA6001684A6942F0A7
:102EF00001024A610068C16841F02001C160002000
:102F000070470120704702207047000000680449A4
:102F1000884203D10348006802F004BC70470000F7
:102F2000001001400401002070472DE9F8430446D9
:102F300090F839001F4616460D46202850D1B5B1ED
:102F4000AEB194F8380001284AD0012084F8380046
:102F50004FF00008C4F83C80212084F83900FEF7C7
:102F600093FBA6848146E68484F8388026E001201D
:102F7000BDE8F883E08C401EE084A0684B46B0F5C5
:102F8000805F4FF000024FF080012046009703D091
:102F900002F09BF8E8B90DE002F097F8C8B928886C
:102FA0002168C0F308004860206908B16D1C05E085
:102FB000AD1C03E0216815F8010B4860E08C002887
:102FC000D8D14B46002240212046009702F07DF8E0
:102FD00008B10320CCE7202084F839000020C7E79F
:102FE0000220C5E7704700009EB00F4D0F4E104FF6
:102FF0004FF0FF3810AC4146A86802F0BBFB3D2201
:103000000A490EA8FDF76DF996F83D008DF8750098
:10301000382221466846FDF764F9DDE90E2339467A
:10302000044800F033F8E6E7000100209C0B002084
:1030300000440140080700209EB0104E104FDFF8FA
:103040004480114C4FF0FF3910AD4946F06802F052
:1030500091FB3D220A490EA8FDF743F997F83D0080
:103060008DF87500382229466846FDF73AF9DDE902
:103070000E234146204600F009F8E6E70001002053
:10308000DC0B002000480140280700200FB470B579
:10309000044600790025E8B325710698006A069970
:1030A00020F00A0008620698006A0699086200216A
:1030B00006A8FFF753FCE061FDF798FE84ED020AD5
:1030C000607904EB8001401C607181ED030A607936
:1030D00003281DD15FF0000004EB800194ED060A87
:1030E000D1ED030A401C032830EE200A84ED060AC5
:1030F000F2DBF0EE400AB0EE081A80EE810ABCEE78
:10310000C00A84ED000A9FED0D0A84ED060A657180
:1031100070BC00E001E05DF814FB012020714D62FD
:103120000698006A069920F00A0008620698006A6C
:10313000069940F002000862EAE700000000000083
:10314000FEE70000002210B5134609291DD10478BE
:10315000592C1AD14478592C17D1491E845C521C21
:103160002344D2B2DBB28A42F8DB017A99420CD115
:10317000064982884A80642A05D9A2F57F43FF3B2D
:1031800001D0408800E00020088010BD76000020BB
:10319000002210B5134609291DD10478592C1AD1E3
:1031A0004478592C17D1491E845C521C2344D2B256
:1031B000DBB28A42F8DB017A99420CD10649828857
:1031C000CA80642A05D9A2F57F43FF3B01D040881D
:1031D00000E00020888010BD7600002005480068CF
:1031E000C16841F01001C160402203490148FFF766
:1031F00017BE00005C0D002088070020054800680D
:10320000C16841F01001C160402203490148FFF745
:1032100007BE00009C0D0020C80700201D4808B50F
:10322000016841F480010160016801F480010091AE
:10323000016841F4001101600068002200F40010F0
:10324000009011460C20FEF7A7FA0C20FEF796FA24
:10325000002211461020FEF79FFA1020FEF78EFA8A
:10326000002211463920FEF797FA3920FEF786FA38
:10327000002211463A20FEF78FFA3A20FEF77EFA36
:10328000002211464620FEF787FABDE80840462096
:10329000FEF774BA3038024070B5ADF5467D0026B1
:1032A0009A9601219AA89B9602F01DFAF04C0121F2
:1032B00060669C969CA89D9602F015FAA0669E9664
:1032C00001219EA89F9602F00EFAE066A0960121C9
:1032D000A0A8A19602F007FA2067A2960121A2A851
:1032E000A39602F000FA6067A4960121A4A8A5960F
:1032F00002F0F9F9A067A6960121A6A8A79602F008
:10330000F2F9E067A8960121A8A8A99602F0EBF9C6
:1033100004F1800501212860AA96AAA8AB9602F0C4
:10332000E2F96860AC960121ACA8AD9602F0DBF939
:10333000A860AE960121AEA8AF9602F0D4F9E8607D
:10334000B0960121B0A8B19602F0CDF92861B296ED
:103350000121B2A8B39602F0C6F96861B4960121C2
:10336000B4A8B59602F0BFF9A861B6960121B6A837
:10337000B79602F0B8F9E861B8960121B8A8B996F5
:1033800002F0B1F92862BA960121BAA8BB9602F000
:10339000AAF96862BC960121BCA8BD9602F0A3F907
:1033A000A862BE960121BEA8BF9602F09CF9E86211
:1033B000C0960121C0A8C19602F095F92863C29673
:1033C0000121C2A8C39602F08EF96863C496012158
:1033D000C4A8C59602F087F9761EA8633146606ED0
:1033E00002F0C8F93146A06E02F0C4F93146E06E31
:1033F00002F0C0F93146E86902F0BCF93146286AAA
:1034000002F0B8F93146206F02F0B4F93146A869EC
:1034100002F0B0F93146606F02F0ACF93146A06FAE
:1034200002F0A8F93146E06F02F0A4F931462868AD
:1034300002F0A0F93146686802F09CF93146A868AC
:1034400002F098F93146E86802F094F931462869AB
:1034500002F090F93146686902F08CF93146686AE9
:1034600002F088F93146A86A02F084F93146E86A28
:1034700002F080F93146286B02F07CF93146686B26
:1034800002F078F93146A86B02F074F91C227949F0
:103490006846FCF726FF0021684602F09DF9754951
:1034A000E0601C221C3107A8FCF71BFF002107A8C5
:1034B00002F092F96F4920611C2238310EA8FCF706
:1034C00010FF00210EA802F087F96A4960611C22F2
:1034D000543115A8FCF705FF002115A802F07CF96E
:1034E0006449A0611C2270311CA8FCF7FAFE00217F
:1034F0001CA802F071F95F49E0611C228C3123A8FD
:10350000FCF7EFFE002123A802F066F9594920627A
:103510001C22A8312AA8FCF7E4FE00212AA802F008
:103520005BF9544960621C22C43131A8FCF7D9FE12
:10353000002131A802F050F94E49A0621C22E0316E
:1035400038A8FCF7CEFE002138A802F045F9494919
:10355000E0621C22FC313FA8FCF7C3FE00213FA81B
:1035600002F03AF920631C22434946A8FCF7B9FE51
:10357000002146A802F030F93F4960631C221C314B
:103580004DA8FCF7AEFE00214DA802F025F93A49FE
:10359000A0631C22383154A8FCF7A3FE002154A8D4
:1035A00002F01AF93449E0631C2254315BA8FCF79D
:1035B00098FE00215BA802F00FF92F4920641C221D
:1035C000703162A8FCF78DFE002162A802F004F9B8
:1035D000294960641C228C3169A8FCF782FE002115
:1035E00069A802F0F9F82449A0641C22A83170A847
:1035F000FCF777FE002170A802F0EEF81E49E064A7
:103600001C22C43177A8FCF76CFE002177A802F0D9
:10361000E3F8194920651C22E0317EA8FCF761FE21
:1036200000217EA802F0D8F8134960651C22FC3105
:1036300085A8FCF756FE002185A802F0CDF8A0650C
:103640001C220E498CA8FCF74CFE00218CA802F02D
:10365000C3F80A49E0651C221C3193A8FCF741FE1F
:10366000002193A802F0B8F820660DF5467D70BDE4
:1036700080000020EC700008047200081C73000831
:103680002DE9F04786B014216846FCF743FE3C481C
:103690000024016841F004010160016801F00401A7
:1036A0000591016841F020010160016801F02001ED
:1036B0000591016841F080010160016801F080011D
:1036C0000591016841F001010160016801F001010B
:1036D0000591016841F010010160016801F01001DD
:1036E0000591016841F002010160016801F00201E9
:1036F0000591016841F008010160016801F00801CD
:103700000591016841F0400101600068DFF87480B4
:1037100000F04000059000223C214046FDF7AEFF3E
:10372000DFF864904FF40046002231464846FDF72A
:10373000A5FFDFF858A04FF4FE7700223946504627
:10374000FDF79CFF3C2000900125CDE9015469461E
:1037500040460394FDF7B6FE0096CDE90154694654
:1037600048460394FDF7AEFE0097CDE90154694643
:1037700050460394FDF7A6FE06B0BDE8F0870000B2
:103780003038024000140240000C02400018024091
:103790001FB5002415480094019402941249039423
:1037A0000160A721C0E901144FF6FF71C0E90314BD
:1037B0008461FEF7EDFB08B1FDF724FB0B48FEF733
:1037C000A8FE08B1FDF71EFB0120CDE900400294E0
:1037D0000022694605480394FEF70CFE002801D03C
:1037E000FDF710FB1FBD0000004401409C0B0020B2
:1037F0001FB50024154800940194029412490394C3
:103800000160A721C0E901144FF6FF71C0E903145C
:103810008461FEF7BDFB08B1FDF7F4FA0B48FEF733
:1038200078FE08B1FDF7EEFA0120CDE900400294E0
:103830000022694605480394FEF7DCFD002801D00C
:10384000FDF7E0FA1FBD000000480140DC0B00203E
:1038500010B588B01C216846FCF75CFD1648154978
:10386000002401605321C0E9011444F61F61C0E93E
:10387000031480218161FEF7F4FF08B1FDF7C2FA5D
:103880006020CDE900040294002269460A480494AD
:10389000FEF77FFF08B1FDF7B5FA04226946064836
:1038A000FEF777FF08B1FDF7ADFA0348FEF72CFFEE
:1038B00008B010BD001800401C0C00201FB50024EB
:1038C0001548009401940294124903940160532115
:1038D000C0E901144FF6FF71C0E903148461FEF7DB
:1038E00057FB08B1FDF78EFA0B48FEF712FE08B140
:1038F000FDF788FA0120CDE90040029400226946D4
:1039000005480394FEF776FD002801D0FDF77AFA0A
:103910001FBD0000001C00405C0C00201FB50024EF
:1039200015480094019402941249039401605321B4
:10393000C0E901144FF6FF71C0E903148461FEF77A
:1039400027FB08B1FDF75EFA0B48FEF7E2FD08B170
:10395000FDF758FA0120CDE90040029400226946A3
:1039600005480394FEF746FD002801D0FDF74AFA0A
:103970001FBD0000002000409C0C002010B592B03C
:1039800000240F941C2168461094FCF7C3FC2021EE
:1039900007A8FCF7BFFC2C482A49C0E9001444F2F0
:1039A0009F11C0E90241046144618461FEF759FF3F
:1039B00008B1FDF727FA0F940FA923481094FEF7DA
:1039C0009FFA08B1FDF71EFA6020CDE900040294C9
:1039D000039404940594002269461B480694FEF75C
:1039E000D8FE08B1FDF70EFA042269461648FEF724
:1039F000D0FE08B1FDF706FA082269461248FEF724
:103A0000C8FE08B1FDF7FEF90C2269460E48FEF724
:103A1000C0FE08B1FDF7F6F90794089409944FF435
:103A200000500A94CDE90B4007A907480E94FEF711
:103A30003DFA08B1FDF7E6F90348FEF765FE12B05E
:103A400010BD0000000001405C0A002010B58CB0E1
:103A500024216846FCF75EFC0024154809944FF0C9
:103A600080410A94C0E900144FF6FF71C0E9024199
:103A7000046184610320CDE900040120CDE9020442
:103A80000494CDE905400794694609480894FEF777
:103A90005AFB08B1FDF7B6F9099409A904480A943C
:103AA000FEF72EFA002801D0FDF7ACF90CB010BDDE
:103AB0009C0A002010B58CB024216846FCF72AFC33
:103AC00000241648099414490A94C0E900144FF6DA
:103AD000FF71C0E90241046184610320CDE9000463
:103AE0000120CDE902040494CDE90540079469461C
:103AF0000A480894FEF727FB08B1FDF783F90994FB
:103B000009A906480A94FEF7FBF9002801D0FDF741
:103B100079F90CB010BD000000040040DC0A002060
:103B200010B58CB024216846FCF7F4FB002416483D
:103B3000099414490A94C0E900144FF6FF71C0E9D2
:103B40000241046184610320CDE900040120CDE934
:103B500002040494CDE90540079469460A48089494
:103B6000FEF7F1FA08B1FDF74DF9099409A90648E5
:103B70000A94FEF7C5F9002801D0FDF743F90CB00F
:103B800010BD0000000800401C0B002010B58CB0D8
:103B900024216846FCF7BEFB00241648099414490A
:103BA0000A94C0E900144FF6FF71C0E902410461B4
:103BB00084610320CDE900040120CDE902040494CE
:103BC000CDE90540079469460A480894FEF7BBFA18
:103BD00008B1FDF717F9099409A906480A94FEF7F8
:103BE0008FF9002801D0FDF70DF90CB010BD0000D1
:103BF000000C00405C0B00200C4810B50A49016025
:103C00004FF461214160002181600C22C160C0E954
:103C100004128161C161FEF76FFF002803D0BDE887
:103C20001040FDF7EFB810BD00100140DC0C002083
:103C30000C4810B50A4901604FF4E13141600021A0
:103C400081600C22C160C0E904128161C161FEF78C
:103C500053FF002803D0BDE81040FDF7D3B810BDD6
:103C6000004400401C0D00200C4810B50A490160BA
:103C70004FF4E1314160002181600C22C160C0E954
:103C800004128161C161FEF737FF002803D0BDE84F
:103C90001040FDF7B7B810BD004800405C0D002093
:103CA0000C4810B50A4901604FF4E1314160002130
:103CB00081600C22C160C0E904128161C161FEF71C
:103CC0001BFF002803D0BDE81040FDF79BB810BDD6
:103CD000001401409C0D0020FEE770470548006875
:103CE000C16841F01001C1600A2203490148FFF791
:103CF00097B800001C0D0020F0050020524FDFF89F
:103D00004C81534EDFF84C91DFF84CB1534CA7F186
:103D1000800A00254FF0FF31786B01F02BFD98F8F9
:103D20000000052873D12078552870D1E0780D283F
:103D30006DD120790A286AD199F80000E8BB607833
:103D4000012844D14648ABF800500580454805801D
:103D5000DAF8100002F0BEFBDAF8140002F0BAFB49
:103D6000DAF8180002F0B6FBDAF81C0002F0B2FB39
:103D7000DAF8200002F0AEFBDAF8240002F0AAFB29
:103D8000DAF8280002F0A6FBDAF82C0002F0A2FB19
:103D9000DAF8400002F09EFBDAF8440002F09AFBE9
:103DA000DAF8480002F096FBDAF84C0002F092FBD9
:103DB000DAF8500002F08EFB00E008E0DAF8540078
:103DC00002F088FB8AF80150012089F80000A078F1
:103DD000B02801D3A0F58070308099F80000012848
:103DE00015D12148F2EE060A90ED100A1F48B8EEF0
:103DF000400A00F0C1F81D4AABF8000070326FF0C5
:103E00000E01B6F9000000F05BF815490880B6F91C
:103E10000000123006280ED899F8000001280AD1B7
:103E20000F48ABF80050012105808AF80010DAF83D
:103E30005C0002F04FFB2560656025810A2207497E
:103E40000B48FEF7EDFF65E700010020340000207D
:103E500036000020380000206A000020F005002015
:103E60006C0000206E00002008070020480500209C
:103E70001C0D0020DFED111A00F12C02C0ED001A1C
:103E8000C0ED011AC0ED021AC0ED031AC0ED041A0C
:103E900091ED002A80ED052A91ED012A80ED062A98
:103EA00091ED022A80ED072AC0ED081AC0ED091A2B
:103EB000C0ED0A1A82EC030A7047000000000000FF
:103EC000401A00EE100AB8EEC00A82ED010AD2EDE7
:103ED000030A30EE801A82ED031AD2ED0C0AB4EE1A
:103EE000E01AF1EE10FA01DDC2ED030A92ED031AB9
:103EF000F1EE600AB4EEE01AF1EE10FA01D2C2ED72
:103F0000030AD2ED050A60EE801AC2ED081AD2ED5E
:103F1000060A92ED031A20EE811A82ED091AD2EDFB
:103F20000B0AF4EEE01AF1EE10FA01DBC2ED080A1A
:103F3000D2ED081AF1EE600AF4EEE01AF1EE10FA92
:103F400002D9F0EE610A01E0C2ED080A70EE810AC2
:103F500092ED021AD2ED071A064930EE411A41EEEF
:103F6000810AFDEEE00A10EE900A086082ED020A76
:103F7000404270472C00002030EE600A80ED010ABC
:103F8000D0ED030A30EE801A80ED031AD0ED0C0A52
:103F9000B4EEE01AF1EE10FA01DDC0ED030A90ED87
:103FA000031AF1EE600AB4EEE01AF1EE10FA01D253
:103FB000C0ED030AD0ED050A60EE801AC0ED081AC4
:103FC000D0ED060A90ED031A20EE811A80ED091A51
:103FD000D0ED0B0AF4EEE01AF1EE10FA01DBC0EDC1
:103FE000080AD0ED081AF1EE600AF4EEE01AF1EEDC
:103FF00010FA02D9F0EE610A01E0C0ED080A70EE95
:10400000810A90ED021AD0ED071A074A30EE411AE4
:1040100041EE810AFDEEE00A10EE901A516080ED4B
:10402000020A4842704700002C000020084E094C4C
:104030004FF0FF352946706801F09CFB2078FCF7B3
:104040002DFE012203490448FEF736FFF2E7000087
:104050000001002074000020DC0C00201FB5424845
:104060003F4C00F1A801039138393830DFF8F4A053
:10407000DFF8F890DFF8F8B0CDE9010101F027FB97
:10408000009001F0E9F801F0CBFE2060FCF7D4FDD0
:10409000FCF786FD3748B0F9000000EE100A3648FC
:1040A000B8EEC01AB0F9000000EE100AB9F900002D
:1040B000F8EEC00A00EE100AB8EEC00A01F0F8F9F6
:1040C000CAF80000B0F9061020685546039AB0F906
:1040D0000600FFF7F5FE0FFA80F82868029AB0F99B
:1040E00004102068B0F90400FFF7EAFE07B2286860
:1040F000019AB0F902102068B0F90200FFF7E0FE63
:1041000006B22868184AB0F900102068B0F900001B
:10411000FFF7D6FE00B243463A46314601F0A0FE14
:104120009BF800005D46012815D1144E1448F1EEAD
:10413000080A96ED100AB8EE400AFFF71DFFA9F82D
:104140000000306C082806D1002028700848803014
:10415000006B01F0E7FA0A21684601F0ACFA8DE73E
:104160004400002070000020700200206A0000203F
:10417000800000206E0000206C0000200807002056
:1041800048050020DFF8B8A02E4C4FF0000B40F699
:104190000206271D4FF47A78AAF180094FF0FF310B
:1041A0005546DAF8300001F0E5FA26604FF4167053
:1041B00038604FF4C87001F077FAC7F80080A86B38
:1041C00001F0B0FA4D46D9F85C0002F00FF94FF457
:1041D00016602060404601F067FA26601A4981F8AF
:1041E00000B0286902F002F9686902F0FFF8A869D6
:1041F00002F0FCF8E86902F0F9F8286A02F0F6F833
:10420000686A02F0F3F8A86A02F0F0F8E86A02F0CF
:10421000EDF8286C02F0EAF8686C02F0E7F8A86C98
:1042200002F0E4F8E86C02F0E1F8286D02F0DEF844
:10423000686D02F0DBF8286902F0D8F8AEE70000FC
:104240000001002034180040380000202DED048BC0
:1042500082B0002442489FED3F8B00F52871DFF8C3
:10426000FC80DFF800A1404DDFF80091404EDFF800
:1042700004B19FED419A00F54470CDE90001287822
:1042800048B94FF0FF31D9F8280001F073FAFCF774
:10429000EFFC0120287098ED080A4746F1EE080A65
:1042A000B8EE400A0198FFF767FE3080386A801F39
:1042B000012802D80124FCF7DBFC9AED001B53EC2B
:1042C000182B574651EC110BFCF73AF901D8012C89
:1042D00025D09FED2A0B53EC102B97ED000B51ECE2
:1042E000100BFCF715F9CAD2012CC8D100272548BC
:1042F000ABF80070378090ED000A01F091F8F0EE15
:10430000490A0098FFF738FE1F490880FCF7B0FC07
:104310002F700024D9F8000001F004FAAFE798EDFF
:10432000080AF1EE0C0A0198B8EE400AFFF724FEE5
:10433000308014484FF65031ABF8001090ED000A71
:1043400001F06EF8F0EE490A0098FFF715FE0E49ED
:10435000088094E70000000000004EC0080700201D
:1043600070020020500000206800002000010020A2
:104370006C0000206A0000200000344300000000B0
:1043800000804CC0480000206E0000202DED048B02
:104390009FED289BDFF8A4A0294C2A4E2A4FDFF876
:1043A000ACB09FED2B8ADFF8AC90DFF8AC802078C2
:1043B00048B92A484FF0FF31006F01F0DBF9FCF7F4
:1043C00057FC012020709AED000B53EC192B51EC97
:1043D000100BFCF7B5F817D82148F1EE0C0A90ED58
:1043E000000A2048B8EE400AFFF7C6FD30804FF6BD
:1043F000503038805846F0EE480A99ED000AFFF731
:10440000BBFDA8F80000D2E7002535803D80584666
:10441000F0EE480A99ED000AFFF7AEFDA8F800009B
:10442000FCF726FC0D4825708030006801F07AF911
:10443000BDE700000000000000804CC058000020D4
:10444000680000206A0000206C000020500300205B
:104450000000B442480000206E00002080000020D0
:1044600008070020D80400202DED048B82B09FEDBA
:10447000298BDFF8A8B02A4C2A4E2B4FDFF8ACA0CE
:104480002B489FED2C9ADFF8B080DFF8B0900090B9
:10449000207840B94FF0FF31B06901F06BF9FCF7BB
:1044A000E7FB012020709BED001B53EC182B51EC17
:1044B000110BFCF72DF818D82148F2EE020A90ED06
:1044C000000A2048B8EE400AFFF756FD38804FF446
:1044D0009661AAF80010F0EE490A009898ED000ADB
:1044E000FFF74AFDA9F80000D2E700253D80AAF8B1
:1044F0000050F0EE490A009898ED000AFFF73CFDE5
:10450000A9F80000FCF7B4FB2570306801F00AF947
:10451000BEE700000000000000804C405800002072
:1045200068000020000100206A0000206C000020CC
:10453000500300200000B4C2480000206E0000209C
:1045400008070020D8040020124DDFF84C8040F608
:1045500002044FF47A762F1D012210491048FEF70D
:10456000ABFC00210F48FDF7F0FF00210E48FDF7DE
:10457000ECFF00210D48FDF7E8FFFFF7AFFB2C60D3
:104580003E60FEF72BFEFEF739FED8F8340001F04E
:104590004DF9E1E73418004080000020740000204D
:1045A000DC0C00209C0B0020DC0B00205C0C0020AD
:1045B0001D4C1B4E1B4F04F180054FF0FF38307827
:1045C000401C307000F032F838780E280DD2DFE849
:1045D00000F00709111D1F131517191B0C232521A6
:1045E000606E00E0E06E01F09DF84146286801F041
:1045F000C1F8E4E7A06EF6E7A06FF4E7E06FF2E73A
:10460000206FF0E7A869EEE7606FECE7E869EAE79A
:10461000286AE8E7686AE6E7A86AE4E7E86AE2E7A2
:104620004100002040000020800000202DE9F043E0
:104630001B480822072390F801C006210524042501
:10464000032602274FF00109BCF1170F10D2DFE853
:104650000CF00F0C250E111316181A1C250E111331
:1046600016181A1C251E20222400002116E00770AF
:10467000BDE8F0830370FBE780F80090F8E7047072
:10468000F6E70670F4E70270F2E70570F0E70D2137
:1046900004E00B2102E00C2100E009210170E7E7B2
:1046A0004000002010B5102080F31188BFF34F8F19
:1046B000BFF36F8F02F084FB18B104494FF08050B4
:1046C0000860002080F3118810BD000004ED00E0B8
:1046D00030B597B030216846FBF71CFE14210CA8BA
:1046E000FBF718FE00252048119512951395149597
:1046F000016841F080510160006800F08050159021
:104700001A48016841F4804101600068022400F405
:1047100080401590032000904FF4803001900120DC
:1047200003901020049006940820CDE90750A8209B
:10473000CDE9090404200B906846FDF707FA0CA99F
:104740000F2081E831004FF4A0500F90E00210904C
:1047500005210CA8FDF7F0F820021490119411A87F
:10476000FDF74CF817B030BD4038024000700040F3
:104770000548016841F47001016003494FF0006091
:10478000803908607047000088ED00E010B50448EB
:10479000FDF706FFBDE810400248FDF701BF00002D
:1047A0005C0A0020DC0B002010B50448FDF7F8FE81
:1047B000BDE810400248FDF7F3BE00005C0A00208F
:1047C0009C0B00200148FDF7EBBE0000BC0F002051
:1047D0000148FDF7E5BE00009C0C00200148FDF7F4
:1047E000DFBE00005C0C0020F0B50268254C264DB1
:1047F000264E274F274B4FF0804CA04209D06045F2
:1048000007D0A84205D0B04203D0B84201D09842A8
:1048100004D122F0700E4A6842EA0E02A0421BD078
:10482000604519D0A84217D0B04215D0B84213D075
:10483000984211D0184DA8420ED0184DA8420BD066
:10484000174DA84208D0174DA84205D0164DA842D2
:1048500002D0164DA84203D122F44075CA682A43FB
:104860004D6922F080022A4302608A68C2620A68A7
:104870008262A04201D0984201D1096901630121FD
:104880004161F0BD0000014000040040000800400C
:10489000000C004000040140004001400044014081
:1048A0000048014000180040001C0040002000406B
:1048B00010B501F01F030121046A99408C43046282
:1048C000016A9A401143016210BD0000F0B5026A0E
:1048D00022F001020262036A42688469124E24F0E7
:1048E00073050C682C4323F002058B682B430D4D98
:1048F000A84201D0B04205D123F00807CB683B4362
:1049000023F00403A84201D0B04205D14D6922F43E
:10491000407215438A692A43426084614968416351
:104920000362F0BD0000014000040140F0B5026ADE
:1049300022F010020262026A436884690D6824F45E
:10494000E64444EA05248D6822F0200242EA05127A
:104950000F4D104EA84201D0B04206D1CF6822F0D0
:10496000800242EA071222F04002A84201D0B0427F
:1049700007D14D6923F4406343EA85038D6943EA17
:10498000850343608461496881630262F0BD000071
:104990000000014000040140F0B5026A22F4807278
:1049A0000262026A4368C46922F4007224F073054B
:1049B0000C68124E2C438D6842EA05220E4DA84227
:1049C00001D0B04206D1CF6822F4006242EA072249
:1049D00022F48062A84201D0B04207D14D6923F48D
:1049E000405343EA05138D6943EA05134360C461EC
:1049F0004968C1630262F0BD00000140000401404B
:104A000030B5026A22F480520262046A4268C369C5
:104A10000D6823F4E64343EA05238D6824F400542B
:104A200044EA0534084DA84202D0084DA84204D1FA
:104A30004D6922F4804242EA85124260C3614968AE
:104A40000164046230BD0000000001400004014028
:104A500070B5046A24F0010404628469056A154E85
:104A6000B04214D0B0F1804F11D0134EB0420ED0EE
:104A7000124EB0420BD0124EB04208D0114EB0428E
:104A800005D0114EB04202D0104EB04203D124F0F6
:104A90000304144301E044F001041A0724F0F00475
:104AA00044EA126225F00A0301F00A011943826107
:104AB000016270BD00000140000400400008004099
:104AC000000C00400004014000400140001800407C
:104AD00030B5046A24F0100404628469056A24F481
:104AE000407444EA022222F470444FF6FF7202EA54
:104AF00003322243A02425F0A00304EA0111194344
:104B00008261016230BD00002DED028B82B01A4837
:104B10009FED1A8A1A4EDFF86C801B4D1B4FDFF891
:104B20007090DFF870A0DFF870B000240090287853
:104B300040B919484FF0FF318038806E00F01AFEFE
:104B400001202870F0EE480A009896ED000AFFF761
:104B500013FA388030684044B0F5402FE7D8A9F800
:104B60000040AAF800403C80FCF782F82C70DBF88B
:104B7000000000F0D7FDDAE7500300200000B44247
:104B800048000020000052BD680000206E00002098
:104B90006A0000206C000020000100202DED028B37
:104BA00082B0DFF860B018489FED188ADFF860A087
:104BB000184DDFF86480194C194F00260BF180095D
:104BC0000090207838B94FF0FF31DBF86C0000F02E
:104BD000D1FD01202070F0EE480A009895ED000A02
:104BE000FFF7CAF9388028685045EAD84045E8DC24
:104BF0003E80FCF73DF82670D9F8000000F092FDE9
:104C0000DFE70000800000205003002000000000CB
:104C1000000040C048000020000040406800002024
:104C20006E0000202DED028BDFF874A09FED1D8A31
:104C3000DFF87480DFF874901D4C1E4D1E4F2878ED
:104C400030B94FF0FF31786A00F094FD01202870F0
:104C500094ED000A00F0E4FB5046F0EE480AFFF73E
:104C60008BF9A8F8000094ED000A00F0D9FB10EED3
:104C7000100A4845E3DB94ED000A00F0D1FB10EE8A
:104C8000100A0E498842DADC0D48002606800D48DD
:104C90000680FBF7EDFF2E70386800F043FDCEE78D
:104CA00080050020000034436E00002000003143E6
:104CB0004800002068000020000100200000374369
:104CC0006A0000206C0000202DED028B82B01A4893
:104CD0009FED1A8A1A4EDFF86C901B4D1B4FDFF8C0
:104CE0007080DFF870A0DFF870B0002400902878A2
:104CF00030B94FF0FF31386A00F03CFD01202870D8
:104D0000F0EE480A009896ED000AFFF735F9A8F88A
:104D10000000306810F17F5FE9D84845E7DCAAF869
:104D20000040A8F80040ABF80040FBF7A1FF2C7052
:104D3000386800F0F7FCDAE75003002000000000BC
:104D400048000020000040406800002000010020D2
:104D50006E0000206A0000206C0000202DED028B08
:104D600082B017489FED178ADFF85C80DFF85CA0FF
:104D7000174C184E184F4FF4402B4FF0000900907D
:104D8000207830B94FF0FF31F06900F0F3FC0120DA
:104D90002070F0EE480A4546009898ED000AFFF7AB
:104DA000EBF83880286850445845E9D84D46A7F8B4
:104DB0000090FBF75DFF2570306800F0B3FCDFE783
:104DC000500300200000B4C2480000200000523D03
:104DD00068000020000100206E00002010B5806BEC
:104DE0000021C185C184FDF7FBFD10BD70B5846B4A
:104DF0002068406994F83910C0F3C01000252129BB
:104E000004D118B1E584204600F046F820684069D6
:104E100094F83A10C0F38010222904D118B1E58526
:104E2000204600F02BF8E06B40F01000E0632046D5
:104E3000FDF7D6FD70BD10B50146806B09680968A5
:104E4000C90513D40021C1850168CA6822F48072A3
:104E5000CA6001684A6922F001024A6101684A6930
:104E600022F040024A61202180F83A10FEF74EF805
:104E700010BD10B5806BFEF757F810BD0168CA6809
:104E800022F49072CA6001684A6922F001024A6104
:104E9000202180F83A1070470168CA6822F0C002E9
:104EA000CA60202180F83910704710B590F83A1088
:104EB000222901D0022010BD8168B1F5805F11D098
:104EC0000169002901681FD0496801F07F03816AE8
:104ED0004A1C82620B70C18D491E0904090CC185F0
:104EE00018D02BE00269816A002A0268526805D056
:104EF000D2B20A80816A491C8162ECE7C2F30802DF
:104F00000A80816A891CF7E74A68816A4B1C8362C0
:104F10000A70E0E70168CA6822F02002CA600168EE
:104F2000CA6822F48072CA6001684A6922F00102EC
:104F30004A61202180F83A10FDF7E8FF002010BDFB
:104F40002DE9F041044600680169E26821F440510E
:104F5000114301612169A068E26908436169114355
:104F600008432168CA6849F20C639A430243CA6045
:104F700020684169A26921F4407111434161E069EF
:104F8000192764253226B0F5004F354A3549206887
:104F90004FF0000806D0884201D0904236D1FCF78D
:104FA00095FD35E0884201D0904202D1FCF78EFD9C
:104FB00001E0FCF77BFD61684A18A0FB070148EBA4
:104FC0000803FBF75DF90146B0FBF5F00201B1FB08
:104FD000F5F06FF01803584301EB800006EBC000BA
:104FE000B0FBF5F000F0F80002EB4002B1FBF5F089
:104FF000584301EB800006EBC000B0FBF5F000F079
:105000000700216810448860BDE8F081FCF74EFD80
:1050100061688B0F8A00A0FB0701FBF731F901469D
:10502000B0FBF5F06FF01802504301EB800006EB87
:105030000010B0FBF5F000F0F002B1FBF5F002EB70
:105040000012B1FBF5F06FF01803584301EB80003C
:1050500006EB0010B0FBF5F000F00F00D1E7000008
:10506000001401400010014090F83910212901D0AE
:10507000022070478168B1F5805F016A0BD04A1C3D
:105080000262026809785160C18C491E0904090C4A
:10509000C1840ED017E009880268C1F3080151608D
:1050A00001690029016A02D0491C0162ECE7891CF0
:1050B000FBE70168CA6822F08002CA600068C16824
:1050C00041F04001C160002070472DE9F041984651
:1050D00017460E460446069D1DE0681C1BD02DB1E8
:1050E000FCF7D2FAA0EB0800A84214D92068C168E6
:1050F00021F4D071C1602068416921F00101416152
:10510000202084F8390084F83A00002084F8380020
:105110000320BDE8F0812068006836EA000004D072
:105120000020B842D9D00020F3E70120F9E70000C1
:105130000148FDF757BC0000DC0C00200E4808B504
:1051400000680168C943C90610D40168406800902E
:105150000948FDF719FC0948006840680849C0F192
:105160000A0008700748006800F0DCFABDE8084053
:105170000148FDF737BC00001C0D00209C0E0020EC
:105180003400002034010020114808B5006801688F
:10519000C943C90617D40168406800900C48FDF760
:1051A000F3FB0C4800684068C0F1400081B20A4837
:1051B000FDF7C8FF40210848FBF7ACF8402206493C
:1051C0000348FDF72DFEBDE808400148FDF70ABC85
:1051D0005C0D0020FC0E002088070020114808B557
:1051E00000680168C943C90617D401684068009087
:1051F0000C48FDF7C9FB0C4800684068C0F140004E
:1052000081B20A48FDF7C4FF40210848FBF782F845
:10521000402206490348FDF703FEBDE80840014867
:10522000FDF7E0BB9C0D00205C0F0020C8070020AC
:1052300010B5084C012208212046FCF71FFA002176
:10524000491CFF29FCDD20460022BDE81040082152
:10525000FCF714BA0014024010B5FFF7E9FF00F0A4
:1052600007F800F019F8BDE8104000F029B8000078
:1052700010B5084C012210212046FCF7FFF900214F
:10528000491CFF29FCDD20460022BDE8104010210A
:10529000FCF7F4B90014024010B5084C012220219B
:1052A0002046FCF7EBF90021491CFF29FCDD2046D4
:1052B0000022BDE810402021FCF7E0B900140240B4
:1052C00010B5084C012204212046FCF7D7F9002133
:1052D000491CFF29FCDD20460022BDE810400421C6
:1052E000FCF7CCB900140240FEE700000FB4054BF8
:1052F00010B503A9044A029800F027F810BC5DF825
:1053000014FB00008D540008AC0100200907090EB1
:10531000002804DB00F1E02080F80014704700F062
:105320000F0000F1E02080F8141D704702E008C86B
:10533000121F08C1002AFAD170477047002001E00F
:1053400001C1121F002AFBD170472DE9F84F994681
:10535000924688460546002706E025280AD0514691
:105360004A4690476D1C7F1C28780028F5D13846A6
:10537000BDE8F88F002315F8011F18462E2915D116
:1053800015F8011F04232A290DD06FF02F02297868
:10539000A1F13004092C09D800EB800002EB400099
:1053A00008446D1CF3E758F8040B6D1C2A78002A9A
:1053B000DDD0632A07D0732A0FD0104651464A46E3
:1053C00090477F1C2AE018F8042B8DF8002000215C
:1053D0008DF801106E46012103E058F8046B4FF080
:1053E000FF315A074FF0000401D409E0641C8442E5
:1053F0000BDA8C42FADB325D002AF7D105E0641C3F
:105400008C42FCDB305D0028F9D1274404E016F81B
:10541000010B51464A469047641EF8D26D1CA3E723
:10542000B5EEC00AF1EE10FA03DADFED020A30EE53
:10543000200A70470000B44330B542F6E0656C4284
:10544000A84201DB284602E0A04200DC2046A94237
:1054500001DB294602E0A14200DC2146AA4201DB31
:105460002A4602E0A24200DC2246AB4201DB2B4688
:1054700002E0A34200DC2346034C20806180A2802E
:10548000E380204630BD00001200002013B54FF627
:10549000FF73012269460248FDF747FD00981CBDD5
:1054A0001C0D0020EFF30580002800D0012070477C
:1054B00070EEC01A30EE200AB0EE002A1048F0EE6E
:1054C000612AF0EE400A41EE422A41EE420A41EEE4
:1054D000021A01EE020AFDEEE22AFDEEE00A12EEE9
:1054E000901ABDEEC00A018010EE901AFDEEE10A9E
:1054F000418010EE901A818010EE101AC180704722
:105500001A000020FCF7CEF8FFF7E2F8FEF7B8F833
:10551000FDF784FEFEF732FAFEF798FAFEF7CAFAB4
:10552000FEF7FEFAFEF732FBFEF766FBFEF780FBA6
:10553000FEF72EF9FEF75CF9FEF7C0F9FEF7EEF97B
:10554000FEF792FBFEF7ACFBFEF782F93C2119480F
:10555000FCF7DEFE3C211848FCF7DAFE3C21174838
:10556000FCF7D6FE3C211648FCF7D2FE0021154878
:10557000FDF7C8F904211348FDF7C4F908211148C3
:10558000FDF7C0F90C210F48FDF7BCF900210E48CA
:10559000FDF7B8F904210C48FDF7B4F9FBF7A2F8C0
:1055A00040F6B830FBF77CFFFDF776FE00F08AF896
:1055B000FEE700009C0A0020DC0A00201C0B0020F3
:1055C0005C0B00205C0A00201C0C0020014600201F
:1055D000842900D0C81C70472C48DFF8A89000F53B
:1055E00036712DED028B82B0DFF89CB09FED288ADA
:1055F000DFF8A0A0284CDFF8A480294E294FE03026
:10560000CDE90001A06840B923484FF0FF31803058
:10561000806B00F0AFF80120A06099F80000062828
:1056200002D0052803D006E04FF6D46101E04FF424
:105630009671A8F800109BED100AF2EE060A019888
:10564000B8EE400AFEF798FC3080F0EE480A009869
:105650009AED000AFEF790FC3880A06D00F03AFF4A
:105660000A2000F021F86068401C60609628C9DBC1
:105670000025A560A06D00F0B9FE3580A8F80050A7
:105680003D80BFE740000020080700207002002096
:105690000000000048000020800000206C00002076
:1056A0006A0000206E00002010B500B9012000F053
:1056B00061FD002010BD10B501B9012100F080FD91
:1056C000002010BD10B500F0CFFE002010BD10B5B9
:1056D000FFF7E8FE18B1BDE8104001F069BBBDE876
:1056E000104001F05FBB38B543684BB1012909D1C7
:1056F0000320002200901146012001F033F838BD4C
:10570000012901D0002038BD03220021012001F031
:1057100005F8040004D000231A46194601F09AF84F
:10572000204638BD38B5002405460094FFF7BAFE80
:1057300090B16946284601F03DF9012801D0FF20CB
:1057400038BD009888B10A494FF080500860BFF317
:105750004F8FBFF36F8F08E000231A461946284683
:1057600001F078F8012800D0FF24204638BD000061
:1057700004ED00E038B505004FF0000000900FD0B8
:105780000024481C0ED001B10C46FFF78BFEB8B1C7
:105790006A460021284601F05BF9012816D104E091
:1057A000802038BD4FF0FF34EFE7009880B1094901
:1057B0004FF080500860BFF34F8FBFF36F8F07E04B
:1057C0002146284601F092F9012801D0FF2038BD7A
:1057D000002038BD04ED00E07FB50D460446416968
:1057E000B0F9080081B1A16971B1FFF7EFFED4E90A
:1057F00005128DE80700D4E900102B46226901F05C
:1058000098FA039004B070BDFFF7E0FE03A9CDE95C
:105810000001208A2B4682B2D4E9001001F05CFA24
:10582000012801D00020EDE70398EBE710B500F068
:105830000DFD002010BD00002DE9F041184C0F4671
:10584000054666692068001D00F098FB38B920689D
:1058500090F82C1001208840A1698143A161681C47
:1058600007D137B12168BDE8F0410E48091D00F0AD
:10587000D7BB20683544B5424560216805D2A06891
:10588000BDE8F041091D00F0B3BB6068091D00F0E0
:10589000AFFB206B854200D22563BDE8F08100009C
:1058A0004C010020D81000202DE9F041054600F001
:1058B000C3FB2E4C2069401C206120682C4F10B186
:1058C000E06940B32DE025602069012829D1002638
:1058D00006EB860007EB800000F07CFB761C072EB1
:1058E000F6D323488C3000F075FB2148A03000F03F
:1058F00071FB1F48B43000F06DFB1D48C83000F04C
:1059000069FB1B48DC3000F065FB19488C30606097
:105910001430A06005E02068E96AC06A884200D8B7
:105920002560E06A401CE062E96A0120A2698840C3
:105930001043A06101EB810007EB8000291D00F0FE
:105940006FFB00F099FBE06900280CD02068E96A41
:10595000C06A884207D207494FF080500860BFF301
:105960004F8FBFF36F8FBDE8F08100004C01002026
:10597000FC0F002004ED00E030B4026C0B46002A5E
:105980000BD0C1681144C1608468A14201D3016891
:10599000C16030BC1846FAF7A4BC30BC70472DE992
:1059A000F041856B174604460026026C82B1C7B1F0
:1059B000E068FAF796FCE168206C091AE160226859
:1059C000914202D2A168081AE060022F16D017E0B7
:1059D0002068A8B9A06801F057FA06460020A06028
:1059E0000EE06068FAF77DFC216C60680844606036
:1059F000A168884204D32068606001E005B16D1E93
:105A00006D1CA5633046BDE8F08110B5044690F8E2
:105A1000510058B101280CD002280FD0102080F37B
:105A20001188BFF34F8FBFF36F8FFEE7206B00F03D
:105A300037FB2046BDE8104000F032BB10BD00002F
:105A400010484FF47051420706D0C01D0D4920F098
:105A50000700411AC1F570510B4A00230144C2E905
:105A600000030839103A21F0070111604B600B6008
:105A70000B1AC0E9001393604FF000405360D060F0
:105A800070470000EC10002098010020144E154CC7
:105A9000A6F1C8074FF08058DFF84C9012E000BF25
:105AA00000F0CAFAF068C568281D00F067FA20699E
:105AB000401E2061E068401EE06000F0DDFA2846EC
:105AC000FFF7A3FFE0680028EAD138680128F9D978
:105AD000C9F80080BFF34F8FBFF36F8FF2E700006C
